:10000000020A188F993099FDC29922020E0012003F
:1000100026FF600C120003740129F9E43AFA80EE1D
:0100200022BD
:10002300020D41BB010689828A83E0225002E72246
:10003300BBFE02E32289828A83E49322BB0110E59B
:100043008229F582E5833AF583E0F5F0A3E02250B7
:1000530009E92582F886F008E622BBFE0AE9258233
:10006300F8E2F5F008E222E5832AF583E993F5F057
:10007300A3E99322F8BB0111E58229F582E5833ACE
:10008300F583E8F0E5F0A3F0225009E92582C8F6EC
:1000930008A6F022BBFE09E92582C8F2E5F008F2C2
:1000A30022EB9FF5F0EA9E42F0E99D42F0E89C4581
:1000B300F022BB010789828A8302039E5005E9F877
:1000C30002038CBBFE05E9F80203B089828A83022E
:1000D30003C2BB011A89828A83D0F0D0E0F8D0E052
:1000E300F9D0E0FAD0E0FBE8C0E0C0F00203A7508B
:1000F30016E9F8D083D082D0E0F9D0E0FAD0E0FB63
:10010300C082C083020395BBFE16E9F8D083D08278
:10011300D0E0F9D0E0FAD0E0FBC082C0830203B99B
:1001230022BB010DE58229F582E5833AF5830203BB
:100133009E5007E92582F802038CBBFE07E925825E
:10014300F80203B0E58229F582E5833AF5830203D9
:10015300C2BB0120E58229F582E5833AF583D0F01D
:10016300D0E0F8D0E0F9D0E0FAD0E0FBE8C0E0C09E
:10017300F00203A75018E92582F8D083D082D0E09B
:10018300F9D0E0FAD0E0FBC082C083020395BBFE46
:1001930018E92582F8D083D082D0E0F9D0E0FAD0F4
:1001A300E0FBC082C0830203B9228A838982E4739D
:1001B300E3F5F009E208B5F06D606B80F3E3F5F069
:1001C30009E608B5F060605E80F387F009E608B5DC
:1001D300F054605280F487F009E208B5F0486046B5
:1001E30080F488828C8387F009E0A3B5F038603609
:1001F30080F488828C8387F009E493A3B5F02760A9
:100203002580F388828C83E3F5F009E0A3B5F0162B
:10021300601480F388828C83E3F5F009E493A3B53B
:10022300F004600280F20202DE808580E7808E8027
:10023300D2803C8015806C807E809B80B5808B80D3
:10024300A1804F8070803A0202EA89828A83ECFAA5
:10025300E493F5F0A3C8C582C8CCC583CCE493A3CB
:10026300C8C582C8CCC583CCB5F070606E80E18907
:10027300828A83E493F5F0A3E208B5F05E605C80C4
:10028300F289828A83E0F5F0A3E608B5F04D604B6E
:1002930080F389828A83E0F5F0A3E208B5F03C603D
:1002A3003A80F389828A83E493F5F0A3E608B5F0F4
:1002B3002A602880F2805389828A83ECFAE493F5DA
:1002C300F0A3C8C582C8CCC583CCE0A3C8C582C887
:1002D300CCC583CCB5F004600280E27FFFB5F002A9
:1002E3000F2240027F012289828A83ECFAE0F5F033
:1002F300A3C8C582C8CCC583CCE0A3C8C582C8CC7B
:10030300C583CCB5F0D560D380E389828A83ECFAC8
:10031300E0F5F0A3C8C582C8CCC583CCE493A3C8D9
:10032300C582C8CCC583CCB5F0B160AF80E288F09C
:10033300ED2402B4040050A3F582EB2402B40400BC
:100343005099232345822390022C73EF4E6012EFC2
:1003530060010EEDBB010B89828A83F0A3DFFCDE13
:10036300FA2289F05007F709DFFCA9F022BBFEFC53
:10037300F309DFFCA9F022BB010689828A83F022FC
:100383005002F722BBFE01F322E6FB08E6FA08E679
:10039300F922EBF608EAF608E9F622E0FBA3E0FA15
:1003A300A3E0F922EBF0A3EAF0A3E9F022E2FB08D1
:1003B300E2FA08E2F922EBF208EAF208E9F222E4AF
:1003C30093FB740193FA740293F922BB010CE58247
:1003D30029F582E5833AF583E0225006E92582F880
:1003E300E622BBFE06E92582F8E222E58229F582B0
:1003F300E5833AF583E493228B3E8A3F89408D411E
:100403008574428575438576447545007546007548
:100413004700E4F54B754FFF755007755199120A64
:10042300A48B458A4689477BFF7A07799C12000E85
:10043300AB74AA75A9761200B512000E7BFF7A077A
:10044300790612000EE54445434542700302051444
:10045300AB42AA43A9441200B5A801AC02AD03AB59
:1004630045AA46A947120331EF60030204FFAB42DA
:10047300AA43A94490000312003F25E0FFE5F033AF
:10048300FE1208E3AA06A9077548018A49894AE4C6
:10049300F54B754FFF755007755199FBFAF980516C
:1004A300E547454645456069AB42AA43A9449000E8
:1004B3000312003FFFD3E54B9FE495F040028051C8
:1004C300AB45AA46A947C003C002C001AB48AA492D
:1004D300A94A75F003E54BA4F58285F08312015414
:1004E300054B754FFF7550077551997B007A00795D
:1004F30000120AA48B458A46894780A4AB42AA43CB
:10050300A9449000081201248B428A4389440204BF
:1005130048E544454345426042AB42AA43A944905F
:10052300000312003FB54B2BE4B5F027AB48AA49B3
:10053300A94AC003C002C001AB42AA43A944900028
:100543000512012489828A83D001D002D003AF4BE4
:100553000201B17BFF7A0779BE80067BFF7A0779B8
:10056300D812000E228B3D8A3E893F8D40E4F5412F
:100573007F0BFE1208E3AA06A9077542018A438985
:10058300447BFF7A07792F12000EAB71AA72A9730D
:100593001200B512000E7BFF7A07790612000EE4F3
:1005A300F541E541C3954040030206C1E5412430CE
:1005B300FF1200037BFF7A07795112000EAB3DAAAD
:1005C3003EA93F75F00BE541A4F58285F083120146
:1005D3002412000E7BFF7A07790612000EAB3DAAA8
:1005E3003EA93F75F00BE541A4F58285F083120126
:1005F30024C003C002C001AB42AA43A9441200D5E0
:10060300E54175F00BA4FFAEF0AB3D253FF9E53EA8
:100613003EFA90000312003FFDAB42AA43A9449067
:100623000003E5F08DF0120077AB3DE53F2FF9E5D0
:100633003E3EFA900005120124C003C002C001AB84
:1006430042AA43A944900005120154AB42AA43A90C
:1006530044C003C002C001AB71AA72A97390000821
:10066300120154AB71AA72A9739000081201248B72
:10067300718A7289737B007A007900C003C002C05B
:1006830001AB71AA72A973900008120154E54124C9
:1006930030FF1200037BFF7A07797512000EAB71EE
:1006A300AA72A9739000081201241200B512000E59
:1006B3007BFF7A07790612000E05410205A5220A7F
:1006C3000D000A0D090068656C70004D656D6D6F56
:1006D3007279206F766572666C6F7720210A000A43
:1006E3000D312E434C493A3A636C695F696E697404
:1006F30028290A0D68656C705F636F6D6D616E64A8
:100703003A20000A0D0A0D000A0D322E434C493AD5
:100713003A636C695F696E697428290A0D636F6DAA
:100723006D616E642D3E636D643A20000A0D342EB4
:10073300434C493A3A636C695F61646428290A0D42
:1007430063757272656E745F636D643A20000A0D9F
:100753002A2A2A2E434C493A3A636C695F616464DE
:1007630028290A0D6C6973745F636D645B695D3A74
:1007730020000A0D2A2A2A2E434C493A3A636C690F
:100783005F61646428290A0D63757272656E745F14
:10079300636D643A20005F20000A0D434C49203A00
:1007A3003A2070617273655F636C6928290A0D686A
:1007B3006561645F636D64203A20002120455252D5
:1007C3004F52203A2073796E746178206572726F8C
:1007D3007220210A0021204552524F52203A2046CE
:1007E300756E6374696F6E206E6F742065786973BC
:1007F3007420210A00E4F53DF53E753FFF75400680
:100803007541C97F0BFE1208E3AA06A907754201C9
:100813008A438944E94A4542700B7BFF7A0679CEC5
:1008230012000E80FE7BFF7A0679E212000EAB3FC8
:10083300AA40A94112000E7BFF7A07790612000E27
:10084300AB3FAA40A941C003C002C001AB42AA43C7
:10085300A9441200D57BFF7A0679E212000EAB3F62
:10086300AA40A94112000E7BFF7A07790612000EF7
:100873007BFF7A07790B12000EAB42AA43A94412FD
:1008830000B512000E7BFF7A07790612000EAB4209
:10089300AA43A944900003E4F5F01200777BFF7AA2
:1008A30009797FC003C002C001AB42AA43A94490A7
:1008B30000051201547B007A007900C003C002C016
:1008C30001AB42AA43A944900008120154AB42AAC7
:1008D30043A9448B748A7589768B718A72897322D2
:1008E3008E4C8F4D7E007F008F828E83E0FCA3E0D1
:1008F300FD4C7003FEFF228D828C83A3A3E0FAA339
:10090300E0FBC3954DEA954C5008CEECCECFEDCF2E
:1009130080D6C3EB954DF54FEA954CF54EC3E54FA5
:100923009410E54E940050198D828C83E0FBA3E074
:100933008F828E83CBF0A3EBF0ED2404FFE43CFE27
:100943002274FC254FF54F74FF354EF54E8D828C86
:1009530083A3A3F0A3E54FF0ED2404FFE43CFEEFF3
:10096300254FFFEE354EFE8F82F583A3A3E54CF0B2
:10097300A3E54DF0EF2404FFE43EFE228F458B46B2
:100983008A47894885744985754A85764BE54B4581
:100993004A4549607FE5457034AB49AA4AA94B12E1
:1009A30000B512000E7BFF7A0679C512000EAB4923
:1009B300AA4AA94B90000312003FAAF0F97B001248
:1009C300000E7BFF7A0679C212000E8032AB49AA71
:1009D3004AA94B1200B512000E7BFF7A0679C512A5
:1009E300000EAB49AA4AA94B90000312003FAAF09C
:1009F300F97B0012000E7BFF7A0679C202000EAB70
:100A030049AA4AA94B9000081201248B498A4A89B2
:100A13004B02099022787FE4F6D8FD75817D020AA6
:100A23005F020CAAE493A3F8E493A34003F68001C6
:100A3300F208DFF48029E493A3F85407240CC8C315
:100A430033C4540F4420C8834004F456800146F64F
:100A5300DFE4800B0102040810204080900B24E4A3
:100A63007E019360BCA3FF543F30E509541FFEE4AD
:100A730093A360010ECF54C025E060A840B8E4936F
:100A8300A3FAE493A3F8E493A3C8C582C8CAC583B1
:100A9300CAF0A3C8C582C8CAC583CADFE9DEE78036
:100AA300BE8B4C8A4D894EE94A4B7009857B4C8538
:100AB3007C4D857D4EE54E454D454C7002802C8521
:100AC3004F55855056855157AB4CAA4DA94E120B25
:100AD30096EF254EF54EEE354DF54DAB4CFAA94E3E
:100AE300120026700AF57BF57CF57DFBFAF9228569
:100AF3004F55855056855157AB4CAA4DA94E120BF5
:100B0300F78B7B8A7C897DEA494B600EE412037A7A
:100B130004257DF57DE4357CF57CAB4CAA4DA94ECF
:100B230022165BFF0E3B0002FF0E6E000000FF0E5D
:100B33003F0000FF0C54000000010A0020320B00AC
:100B430000000000000000000000000000000000A2
:100B53000000000000000000000000000000000092
:100B63000000000000000000000000000000000082
:100B73000001090001080003740000000371000074
:100B8300000477000000000048000000000000009F
:100B93000000008B528A538954E4F558F559E4FE5A
:100BA300FFAB55AA56A9578F828E831203CEFD60E1
:100BB30013AB52AA53A9541200266D60070FBF004E
:100BC300010E80DDAB55AA56A9578F828E8312037F
:100BD300CE7002801A0559E55970020558AB5205CB
:100BE30054E55470020553F9AA5312002670AFAEB0
:100BF30058AF59228B528A53895485555885565973
:100C030085575AAB58AA59A95A120026FF6019AB47
:100C130052AA53A9541200266F600D7401255AF588
:100C23005AE43559F55980DBAB58AA59A95A120031
:100C3300266007AB52AA53A95422AB520554E5547C
:100C4300AA537002055314F912002670ADFBFAF98A
:100C5300228F3D8B3E8A3F8940857441857542854D
:100C63007643754430E5434542454160390544AF19
:100C7300441200037BFF7A0679C212000EAB41AA2D
:100C830042A9431200B512000E7BFF7A0679C21205
:100C9300000EAB41AA42A9439000081201248B41E4
:100CA3008A42894380BF22120EA1120EB3E4F5904B
:100CB3001207F87BFF7A0E794412000EAB74AA7503
:100CC300A9761200B512000E7BFF7A0E7966120028
:100CD3000E7B007A00795B7D02120568E50A60FCF1
:100CE300AF0A120CF9EF60097BFF7A0E796B1200E1
:100CF3000EE4F50A80E68F3DE4FFE53D640D701DCB
:100D0300FB7A00790BAD091203FBE4F509FE7F3290
:100D1300FDFB7A00790B12034E7F018020E53DB481
:100D23000812E509D3940040141509740B2509F83A
:100D3300E4F68009740B2509F8A63D050922C0E0F5
:100D4300C0F0C083C082C0D075D000C000C001C055
:100D530002C003C004C005C006C00730980A8599C5
:100D63000AAF0A120003C298D007D006D005D004F8
:100D7300D003D002D001D000D0D0D082D083D0F025
:100D8300D0E032EFB408005036900D93F828287362
:100D9300020DAB020DAE020DB1020DB4020DB7028E
:100DA3000DBA020DBD020DC0D29022D29122D29271
:100DB30022D29322D29422D29522D29622D2972261
:100DC300EFB408005036900DD0F8282873020DE8D0
:100DD300020DEB020DEE020DF1020DF4020DF7020E
:100DE3000DFA020DFDC29022C29122D29222C29329
:100DF30022C29422C29522C29622C29722C0E0C088
:100E0300D075D000C004C005C006C007AF7AAE7964
:100E1300AD78AC77EF2401F57AE43EF579E43DF55E
:100E230078E43CF577758CFC758A66D007D006D0DC
:100E330005D004D0D0D0E0326C656400746573745F
:100E4300000A0D336D61696E203A3A20636C695F65
:100E5300696E697428290A0D686561645F636D644E
:100E63003A20000A0D0A0D000A0D008F3D8B3E8AC1
:100E73003F89401200B512002624D0F541AB3EAAAB
:100E83003FA94090000312012478C27C0E7DFF121B
:100E93000331EFAF417003020D86120DC322538954
:100EA300F0438901758CFC758A6775A882D28C2200
:100EB300758920759850758DFD75A890D28E226F17
:020EC3006E00BF
:00000001FF
