:100000000204B48F993099FDC299220209AA120004
:1000100026FF600C120003740129F9E43AFA80EE1D
:0100200022BD
:100023000208DDBB010689828A83E0225002E722AF
:10003300BBFE02E32289828A83E49322BB0110E59B
:100043008229F582E5833AF583E0F5F0A3E02250B7
:1000530009E92582F886F008E622BBFE0AE9258233
:10006300F8E2F5F008E222E5832AF583E993F5F057
:10007300A3E99322EB9FF5F0EA9E42F0E99D42F05B
:10008300E89C45F022BB010789828A830203225040
:1000930005E9F8020310BBFE05E9F802033489827F
:1000A3008A83020346BB010DE58229F582E5833A83
:1000B300F5830203225007E92582F8020310BBFEF1
:1000C30007E92582F8020334E58229F582E5833ABC
:1000D300F583020346BB0120E58229F582E5833AD5
:1000E300F583D0F0D0E0F8D0E0F9D0E0FAD0E0FB2F
:1000F300E8C0E0C0F002032B5018E92582F8D08352
:10010300D082D0E0F9D0E0FAD0E0FBC082C0830215
:100113000319BBFE18E92582F8D083D082D0E0F919
:10012300D0E0FAD0E0FBC082C08302033D228A8381
:100133008982E473E3F5F009E208B5F06D606B8042
:10014300F3E3F5F009E608B5F060605E80F387F04D
:1001530009E608B5F054605280F487F009E208B567
:10016300F048604680F488828C8387F009E0A3B569
:10017300F038603680F488828C8387F009E493A397
:10018300B5F027602580F388828C83E3F5F009E0DE
:10019300A3B5F016601480F388828C83E3F5F0092D
:1001A300E493A3B5F004600280F2020262808580CA
:1001B300E7808E80D2803C8015806C807E809B801F
:1001C300B5808B80A1804F8070803A02026E898255
:1001D3008A83ECFAE493F5F0A3C8C582C8CCC5833F
:1001E300CCE493A3C8C582C8CCC583CCB5F07060FA
:1001F3006E80E189828A83E493F5F0A3E208B5F087
:100203005E605C80F289828A83E0F5F0A3E608B53C
:10021300F04D604B80F389828A83E0F5F0A3E20816
:10022300B5F03C603A80F389828A83E493F5F0A3C6
:10023300E608B5F02A602880F2805389828A83EC2D
:10024300FAE493F5F0A3C8C582C8CCC583CCE0A378
:10025300C8C582C8CCC583CCB5F004600280E27FF8
:10026300FFB5F0020F2240027F012289828A83ECCC
:10027300FAE0F5F0A3C8C582C8CCC583CCE0A3C817
:10028300C582C8CCC583CCB5F0D560D380E3898261
:100293008A83ECFAE0F5F0A3C8C582C8CCC583CC49
:1002A300E493A3C8C582C8CCC583CCB5F0B160AF15
:1002B30080E288F0ED2402B4040050A3F582EB241D
:1002C30002B40400509923234582239001B073EFB5
:1002D3004E6012EF60010EEDBB010B89828A83F041
:1002E300A3DFFCDEFA2289F05007F709DFFCA9F04F
:1002F30022BBFEFCF309DFFCA9F022BB01068982C5
:100303008A83F0225002F722BBFE01F322E6FB08A8
:10031300E6FA08E6F922EBF608EAF608E9F622E03F
:10032300FBA3E0FAA3E0F922EBF0A3EAF0A3E9F0E0
:1003330022E2FB08E2FA08E2F922EBF208EAF20809
:10034300E9F222E493FB740193FA740293F922BB5A
:10035300010CE58229F582E5833AF583E022500614
:10036300E92582F8E622BBFE06E92582F8E222E5CA
:100373008229F582E5833AF583E493228B098A0A7D
:10038300890B8D0C85620D85630E85640F751000D6
:10039300751100751200E4F5227526FF752709759E
:1003A300282A1205C88B108A118912E50F450E45BC
:1003B3000D700302044AAB0DAA0EA90F120088A800
:1003C30001AC02AD03AB10AA11A9121202B5EF7072
:1003D30061F5227526FF75270975282AFBFAF9802E
:1003E30046E51245114510605EAB0DAA0EA90F90AC
:1003F300000312003FFFD3E5229FE495F040028003
:1004030046AA11A912E52275F003A42413F8A61035
:1004130008A60208A60105227526FF752709752877
:100423002A7B007A0079001205C88B108A11891281
:1004330080AFAB0DAA0EA90F9000081200A88B0D78
:100443008A0E890F0203AEE50F450E450D6058ABCA
:100453000DAA0EA90F12008878257C097DFF1202D0
:10046300B5EF70028013AB0DAA0EA90F9000031213
:10047300003FB5222AE4B5F026FB7A007913C003C6
:10048300C002C001AB0DAA0EA90F9000051200A86F
:1004930089828A83D001D002D003AF220201357B47
:1004A300FF7A09792D80067BFF7A09794712000EBE
:1004B30022787FE4F6D8FD7581760204FB0209E514
:1004C300E493A3F8E493A34003F68001F208DFF476
:1004D3008029E493A3F85407240CC8C333C4540FEE
:1004E3004420C8834004F456800146F6DFE4800BC1
:1004F30001020408102040809007C1E47E0193604C
:10050300BCA3FF543F30E509541FFEE493A36001ED
:100513000ECF54C025E060A840B8E493A3FAE49357
:10052300A3F8E493A3C8C582C8CAC583CAF0A3C805
:10053300C582C8CAC583CADFE9DEE780BE8F088BE0
:10054300098A0A890B85620C85630D85640EE50EA5
:10055300450D450C606EE5087017AB0CAA0DA90E8E
:1005630012008812000E7BFF7A09792212000E8096
:100573003FAB0CAA0DA90E120088C003C002C00134
:10058300AB09AA0AA90B120088A801AC02AD03D0DB
:1005930001D002D0031202B5EF7029AB0CAA0DA94A
:1005A3000E12008812000E7BFF7A09792202000ED8
:1005B300AB0CAA0DA90E9000081200A88B0C8A0D93
:1005C300890E808A228B238A248925E94A4B700964
:1005D300857423857524857625E525452445237073
:1005E30002802C85262C85272D85282EAB23AA2433
:1005F300A9251206ADEF2525F525EE3524F524AB07
:1006030023FAA925120026700AF574F575F576FB11
:10061300FAF92285262C85272D85282EAB23AA249B
:10062300A92512070E8B748A758976EA494B600EE9
:10063300E41202FE042576F576E43575F575AB23F1
:10064300AA24A925228B088A09890A8D0BE4F50CB3
:10065300F50CE50CC3950B5050E50C75F00BA4ABF2
:1006630008250AF9E50935F0FAC003C002C001AB59
:100673005FAA60A9619000081200D8AB5FAA60A9C5
:10068300619000081200A88B5F8A6089617B007A01
:10069300007900C003C002C001AB5FAA60A96190EA
:1006A30000081200D8050C80A9228B298A2A892BDD
:1006B300E4F52FF530E4FEFFAB2CAA2DA92E8F8293
:1006C3008E83120352FD6013AB29AA2AA92B1200B1
:1006D300266D60070FBF00010E80DDAB2CAA2DA98C
:1006E3002E8F828E831203527002801A0530E530FA
:1006F3007002052FAB29052BE52B7002052AF9AAF9
:100703002A12002670AFAE2FAF30228B298A2A8996
:100713002B852C2F852D30852E31AB2FAA30A93177
:10072300120026FF6019AB29AA2AA92B1200266FF3
:10073300600D74012531F531E43530F53080DBABE4
:100743002FAA30A9311200266007AB29AA2AA92BA8
:1007530022AB29052BE52BAA2A7002052A14F912CC
:10076300002670ADFBFAF9228F088B098A0A890BE0
:1007730085620C85630D85640E750F30E50E450D9E
:10078300450C6039050FAF0F1200037BFF7A09791F
:100793002212000EAB0CAA0DA90E12008812000E35
:1007A3007BFF7A09792212000EAB0CAA0DA90E90D9
:1007B30000081200A88B0C8A0D890E80BF221649EF
:1007C300FF0A7B0002FF0967000000FF0A7F0000A9
:1007D300FF076B0000000134001435000000000027
:1007E3000000000000000000000000000000000105
:1007F30033000132000362000000035F00000004C5
:100803007000000000008F08E4FFE508640D701D10
:10081300FB7A007935AD3312037FE4F533FE7F14A1
:10082300FDFB7A0079351202D27F018020E508B4FE
:100833000812E533D394004014153374352533F887
:10084300E4F6800974352533F8A608053322EF242E
:10085300D0B40800503D90086775F003A4C5832504
:10086300F0C5837302087F020882020885020888A4
:1008730002088B02088E020891020894D29022D2B9
:100883009122D29222D29322D29422D29522D2962C
:1008930022D29722EF24D0B40800503D9008AD75C2
:1008A300F003A4C58325F0C583730208C50208C8F5
:1008B3000208CB0208CE0208D10208D40208D702EC
:1008C30008DAC29022C29122C29222C29322C29417
:1008D30022C29522C29622C29722C0E0C0F0C083F2
:1008E300C082C0D075D000C000C001C002C003C028
:1008F30004C005C006C00730980A859934AF341286
:100903000003C298D007D006D005D004D003D0028C
:10091300D001D000D0D0D082D083D0F0D0E0320A42
:100923000D0068656C70005F200021204552524F16
:1009330052203A2073796E746178206572726F72F7
:1009430020210A0021204552524F52203A20467559
:100953006E6374696F6E206E6F742065786973744B
:1009630020210A008F088B098A0A890B120088123A
:100973000026F50CAB09AA0AA90B9000031200A8E4
:1009830078447C0A7DFF1202B5EF7BFF700C7A0A74
:10099300794712000EAF0C0208517A0A79501200FF
:1009A3000EAF0C12089722C0E0C0D075D000C0046F
:1009B300C005C006C007AF73AE72AD71AC70EF2453
:1009C30001F573E43EF572E43DF571E43CF57075B1
:1009D3008CFC758A66D007D006D005D004D0D0D061
:1009E300E032E4F590120A5A120A6C120A167B00DE
:1009F3007A0079497D02120648E53460FCAF34126F
:100A03000809EF60097BFF7A0A798412000EE4F586
:100A13003480E67565FF756609756725E4F568F545
:100A230069756AFF756B05756C40F56DF56EF56F4D
:100A3300F562756300756465F55F756000756165E2
:100A4300226F6E006C6564206F6E0A0D006C656426
:100A5300206F66660A0D005389F0438901758CFC8B
:100A6300758A6775A882D28C22758920759850750E
:100A73008DFD75A890D28E226C65640074657374C5
:040A8300000A0D0058
:00000001FF
