:100000000209E48F993099FDC29922020D36538975
:10001000F0438901758CFC758A6775A882D28C22A1
:10002300020E06BB010689828A83E0225002E72280
:10003300BBFE02E32289828A83E49322BB0110E59B
:100043008229F582E5833AF583E0F5F0A3E02250B7
:1000530009E92582F886F008E622BBFE0AE9258233
:10006300F8E2F5F008E222E5832AF583E993F5F057
:10007300A3E99322F8BB0111E58229F582E5833ACE
:10008300F583E8F0E5F0A3F0225009E92582C8F6EC
:1000930008A6F022BBFE09E92582C8F2E5F008F2C2
:1000A30022EB9FF5F0EA9E42F0E99D42F0E89C4581
:1000B300F022BB010789828A8302039E5005E9F877
:1000C30002038CBBFE05E9F80203B089828A83022E
:1000D30003C2BB011A89828A83D0F0D0E0F8D0E052
:1000E300F9D0E0FAD0E0FBE8C0E0C0F00203A7508B
:1000F30016E9F8D083D082D0E0F9D0E0FAD0E0FB63
:10010300C082C083020395BBFE16E9F8D083D08278
:10011300D0E0F9D0E0FAD0E0FBC082C0830203B99B
:1001230022BB010DE58229F582E5833AF5830203BB
:100133009E5007E92582F802038CBBFE07E925825E
:10014300F80203B0E58229F582E5833AF5830203D9
:10015300C2BB0120E58229F582E5833AF583D0F01D
:10016300D0E0F8D0E0F9D0E0FAD0E0FBE8C0E0C09E
:10017300F00203A75018E92582F8D083D082D0E09B
:10018300F9D0E0FAD0E0FBC082C083020395BBFE46
:1001930018E92582F8D083D082D0E0F9D0E0FAD0F4
:1001A300E0FBC082C0830203B9228A838982E4739D
:1001B300E3F5F009E208B5F06D606B80F3E3F5F069
:1001C30009E608B5F060605E80F387F009E608B5DC
:1001D300F054605280F487F009E208B5F0486046B5
:1001E30080F488828C8387F009E0A3B5F038603609
:1001F30080F488828C8387F009E493A3B5F02760A9
:100203002580F388828C83E3F5F009E0A3B5F0162B
:10021300601480F388828C83E3F5F009E493A3B53B
:10022300F004600280F20202DE808580E7808E8027
:10023300D2803C8015806C807E809B80B5808B80D3
:10024300A1804F8070803A0202EA89828A83ECFAA5
:10025300E493F5F0A3C8C582C8CCC583CCE493A3CB
:10026300C8C582C8CCC583CCB5F070606E80E18907
:10027300828A83E493F5F0A3E208B5F05E605C80C4
:10028300F289828A83E0F5F0A3E608B5F04D604B6E
:1002930080F389828A83E0F5F0A3E208B5F03C603D
:1002A3003A80F389828A83E493F5F0A3E608B5F0F4
:1002B3002A602880F2805389828A83ECFAE493F5DA
:1002C300F0A3C8C582C8CCC583CCE0A3C8C582C887
:1002D300CCC583CCB5F004600280E27FFFB5F002A9
:1002E3000F2240027F012289828A83ECFAE0F5F033
:1002F300A3C8C582C8CCC583CCE0A3C8C582C8CC7B
:10030300C583CCB5F0D560D380E389828A83ECFAC8
:10031300E0F5F0A3C8C582C8CCC583CCE493A3C8D9
:10032300C582C8CCC583CCB5F0B160AF80E288F09C
:10033300ED2402B4040050A3F582EB2402B40400BC
:100343005099232345822390022C73EF4E6012EFC2
:1003530060010EEDBB010B89828A83F0A3DFFCDE13
:10036300FA2289F05007F709DFFCA9F022BBFEFC53
:10037300F309DFFCA9F022BB010689828A83F022FC
:100383005002F722BBFE01F322E6FB08E6FA08E679
:10039300F922EBF608EAF608E9F622E0FBA3E0FA15
:1003A300A3E0F922EBF0A3EAF0A3E9F022E2FB08D1
:1003B300E2FA08E2F922EBF208EAF208E9F222E4AF
:1003C30093FB740193FA740293F922BB010CE58247
:1003D30029F582E5833AF583E0225006E92582F880
:1003E300E622BBFE06E92582F8E222E58229F582B0
:1003F300E5833AF583E493226F6E006C65640074C1
:10040300657374000A0D000A0D090068656C7000BD
:100413000A0D312E434C493A3A636C695F696E6940
:100423007428290A0D68656C705F636F6D6D616E6A
:10043300643A20000A0D0A0D004D656D6D6F7279E7
:10044300206F766572666C6F7720210A000A0D3281
:100453002E434C493A3A636C695F696E6974282983
:100463000A0D686561645F636D643A20000A0D34A8
:100473002E434C493A3A636C695F61646428290AE4
:100483000D63757272656E745F636D643A20000A62
:100493000D2A2A2A2E434C493A3A636C695F6164F8
:1004A3006428290A0D6C6973745F636D645B695D0D
:1004B3003A20000A0D2A2A2A2E434C493A3A636C01
:1004C300695F61646428290A0D63757272656E74CD
:1004D3005F636D643A20005F20000A0D434C49209E
:1004E3003A3A2070617273655F636C6928290A0D5B
:1004F300686561645F636D64203A20002120455282
:10050300524F52203A2073796E746178206572726B
:100513006F7220210A0021204552524F52203A2067
:1005230046756E6374696F6E206E6F7420657869AB
:10053300737420210A000A0D336D61696E203A3A03
:1005430020636C695F696E697428290A0D686561A7
:10055300645F636D643A20008B5E8A5F89608D619E
:10056300850C62850D63850E64756500756600757F
:100573006700E4F56B756FFF7570047571DA120A25
:10058300708B658A6689677A0479DD120DDCE56410
:1005930045634562700302065DAB62AA63A96412F8
:1005A30000B5A801AC02AD03AB65AA66A967120347
:1005B30031EF6003020648AB62AA63A964900003AB
:1005C30012003F25E0FFE5F033FE1208B0AA06A9AA
:1005D300077568018A69896AE4F56B756FFF757041
:1005E300047571DAFBFAF98051E567456645656084
:1005F30069AB62AA63A96490000312003FFFD3E5CD
:100603006B9FE495F040028051AB65AA66A967C071
:1006130003C002C001AB68AA69A96A75F003E56B60
:10062300A4F58285F083120154056B756FFF757015
:10063300047571DA7B007A007900120A708B658A7F
:1006430066896780A4AB62AA63A96490000812015B
:10065300248B628A638964020591E564456345627C
:100663006042AB62AA63A96490000312003FB56BBA
:100673002BE4B5F027AB68AA69A96AC003C002C01E
:1006830001AB62AA63A96490000512012489828ADE
:1006930083D001D002D003AF6B0201B17BFF7A0498
:1006A30079FF80067BFF7A057919120DF3228B5DA2
:1006B3008A5E895F8D60E4F5617F0BFE1208B0AA44
:1006C30006A9077562018A6389647BFF7A047970DE
:1006D300120DF3AB09AA0AA90B120DE7E4F561E5C4
:1006E30061C3956040030207E9AB5DAA5EA95F752C
:1006F300F00BE561A4F58285F083120124C003C0E9
:1007030002C001AB62AA63A9641200D5E56175F06A
:100713000BA4FFAEF0AB5D255FF9E55E3EFA9000FA
:100723000312003FFDAB62AA63A964900003E5F0E6
:100733008DF0120077AB5DE55F2FF9E55E3EFA9031
:100743000005120124C003C002C001AB62AA63A961
:1007530064900005120154E5612430FF1200037B0D
:10076300FF7A047992120DF3AB5DAA5EA95F75F06F
:100773000BE561A4F58285F083120124120DEAAB27
:1007830062AA63A964C003C002C001AB09AA0AA993
:100793000B900008120154AB09AA0AA90B90000898
:1007A3001201248B098A0A890B7B007A007900C025
:1007B30003C002C001AB09AA0AA90B9000081201E9
:1007C30054E5612430FF1200037BFF7A0479B612EB
:1007D3000DF3AB09AA0AA90B900008120124120D0C
:1007E300E705610206E222E4F55DF55E755FFF75DC
:1007F300600475610E7F0BFE1208B0AA06A9077587
:1008030062018A6389647BFF7A047913120DF3AB67
:100813005FAA60A961120DEAE56445634562700948
:100823007A04793C120DF380FEAB5FAA60A961C024
:1008330003C002C001AB62AA63A9641200D5AB6214
:10084300AA63A964900003E4F5F01200777BFF7AB2
:1008530009794CC003C002C001AB62AA63A96490CA
:1008630000051201547B007A007900C003C002C066
:1008730001AB62AA63A964900008120154AB62AA97
:1008830063A9648B0C8A0D890E8B098A0A890B7BF9
:10089300FF7A047950120DF3AB0CAA0DA90E1200C6
:1008A300B5120DF37BFF7A047937020DF38E6C8F4B
:1008B3006D7E007F008F828E83E0FCA3E0FD4C7091
:1008C30003FEFF228D828C83A3A3E0FAA3E0FBC384
:1008D300956DEA956C5008CEECCECFEDCF80D6C3A4
:1008E300EB956DF56FEA956CF56EC3E56F9410E5C6
:1008F3006E940050198D828C83E0FBA3E08F828E6F
:1009030083CBF0A3EBF0ED2404FFE43CFE2274FC64
:10091300256FF56F74FF356EF56E8D828C83A3A3FF
:10092300F0A3E56FF0ED2404FFE43CFEEF256FFF39
:10093300EE356EFE8F82F583A3A3E56CF0A3E56D20
:10094300F0EF2404FFE43EFE228B658A668967AEDE
:1009530007850C68850D69850E6AE56A45694568F2
:10096300607EEE7034AB68AA69A96A1200B5120DF5
:10097300F37BFF7A04790A120DF3AB68AA69A96ABB
:1009830090000312003FAAF0F97B00120DF37BFFE6
:100993007A047907120DF38032AB68AA69A96A1247
:1009A30000B5120DF37BFF7A04790A120DF3AB68DD
:1009B300AA69A96A90000312003FAAF0F97B00120A
:1009C3000DF37BFF7A047907020DF3AB68AA69A9DB
:1009D3006A9000081201248B688A69896A02095D9A
:1009E30022787FE4F6D8FD75817D020A2B020D7112
:1009F300E493A3F8E493A34003F68001F208DFF441
:100A03008029E493A3F85407240CC8C333C4540FB8
:100A13004420C8834004F456800146F6DFE4800B8B
:100A23000102040810204080900AF0E47E019360E4
:100A3300BCA3FF543F30E509541FFEE493A36001B8
:100A43000ECF54C025E060A840B8E493A3FAE49322
:100A5300A3F8E493A3C8C582C8CAC583CAF0A3C8D0
:100A6300C582C8CAC583CADFE9DEE780BE8B6C8A4C
:100A73006D896EE94A4B7009857B6C857C6D857D3C
:100A83006EE56E456D456C7002802C856F758570C3
:100A930076857177AB6CAA6DA96E120B62EF256E2A
:100AA300F56EEE356DF56DAB6CFAA96E120026701E
:100AB3000AF57BF57CF57DFBFAF922856F75857068
:100AC30076857177AB6CAA6DA96E120BC38B7B8A8B
:100AD3007C897DEA494B600EE412037A04257DF597
:100AE3007DE4357CF57CAB6CAA6DA96E2204100005
:100AF300000000012A0020322B000000000000004B
:100B030000000000000000000000000000000000E2
:100B130000000000000000000000000000000000D2
:100B23000000000000000000000000010F000108A9
:100B330000030C00000003090000001614FF03FE6D
:100B43000002FF0DA9000000FF04020000FF0C20BB
:100B53000000000048000000000000000000008BBF
:100B6300728A738974E4F578F579E4FEFFAB75AAAC
:100B730076A9778F828E831203CEFD6013AB72AAA0
:100B830073A9741200266D60070FBF00010E80DD8C
:100B9300AB75AA76A9778F828E831203CE700280FB
:100BA3001A0579E57970020578AB720574E57470FE
:100BB300020573F9AA7312002670AFAE78AF7922DB
:100BC3008B728A73897485757885767985777AAB24
:100BD30078AA79A97A120026FF6019AB72AA73A9C1
:100BE300741200266F600D7401257AF57AE4357965
:100BF300F57980DBAB78AA79A97A1200266007AB76
:100C030072AA73A97422AB720574E574AA73700295
:100C1300057314F912002670ADFBFAF9228F5D8B70
:100C23005E8A5F8960850C61850D62850E637E3007
:100C3300E5634562456160380EAF061200037BFF32
:100C43007A047907120DF3AB61AA62A9631200B5A6
:100C5300120DF37BFF7A047907120DF3AB61AA62DD
:100C6300A9639000081201248B618A62896380C0A2
:100C7300228F5DE4FFE55D640D701DFB7A00792B27
:100C8300AD0F12055BE4F50FFE7F32FDFB7A0079B1
:100C93002B12034E7F018020E55DB40812E50FD3CC
:100CA30094004014150F742B250FF8E4F680097493
:100CB3002B250FF8A65D050F22EFB40800503690E0
:100CC3000CC9F8282873020CE1020CE4020CE702B9
:100CD3000CEA020CED020CF0020CF3020CF6D290BB
:100CE30022D29122D29222D29322D29422D295223C
:100CF300D29622D29722EFB408005036900D06F810
:100D0300282873020D1E020D21020D24020D270255
:100D13000D2A020D2D020D30020D33C29022C29115
:100D230022D29222C29322C29422C29522C2962236
:100D3300C29722C0E0C0D075D000C004C005C00671
:100D4300C007AF13AE12AD11AC10EF2401F513E4DD
:100D53003EF512E43DF511E43CF510758CFC758A03
:100D630066D007D006D005D004D0D0D0E032120030
:100D73000E120E1FE4F5901207EA7A057939120D67
:100D8300DC7B007A0079147D021206B1E52A60FC4F
:100D9300AF2A120C74EF60097BFF7A047907120DF6
:100DA300F3E4F52A80E68F5D8B5E8A5F896012002B
:100DB300B512002624D0F561AB5EAA5FA96090004E
:100DC3000312012478FB7C037DFF120331EFAF6133
:100DD3007003020CBC120CF9227BFF120DF3AB0C57
:100DE300AA0DA90E1200B5120DF37BFF7A04793711
:100DF300120026FF600C120003740129F9E43AFA89
:100E030080EE22C0D075D000C00730980A85992A99
:100E1300AF2A120003C298D007D0D032758920754B
:0B0E23009850758DFD75A890D28E22AE
:00000001FF
