:1008D2004E6869657420646F3A2000274300446FB4
:1008E200206E6869657420646F2E2E2E004D75612E
:0C08F2004C696E684B69656E2E766E00D6
:10092100EF1392A0EFA2E192A1A2E292A2D2A3D2EE
:10093100A4C2A3C2A420A5FD30A5FDD2A6AFB0C21A
:01094100A60F
:010942002292
:1009CB00E4FDFCC3ED9FEC9E50070DBD00010C80B8
:0109DB00F229
:0109DC0022F8
:10094300E4FDFCC3ED9FEC9E5015E4FBFA0BBB00EA
:0F095300010AEB647D4A70F50DBD00010C80E4D4
:010962002272
:0309B8001209839E
:1009BB00D2827F037E001209CBC2827F320209CB27
:10098300EF139284EFC313139285EF1313543F13A2
:0C0993009286EF131313541F1392872257
:1009DD00AB07EBC4540FFF1209B8AF031209830222
:0209ED0009BB44
:0C09EF007F011209DD7F0A7E000209CBA7
:10085500E4FF1209837F147E00120943C280C2811E
:100865007F031209B87F057E001209431209BB7F79
:10087500647E001209CB1209BB7F0212098312099B
:10088500BB7F281209DD7F0C1209DD7F061209DD09
:050895007F010209DDF6
:10096300ED7006EF2480FA8004EF24C0FA7FE87E5E
:10097300031209CBAF021209DD7F327E000209CBDD
:0409FB00842430FF21
:0809FF00D2801209DDC2802242
:1008FE008B098A0A890BAB09AA0AA90B12099FFF59
:10090E0060101209FF7401250BF50BE4350AF50A88
:03091E0080E42250
:10089A008F087BFF7A0879D21208FEE50875F064A2
:1008AA001209FBE50875F06484E5F075F00A12098F
:1008BA00FBE50875F00A84E5F02430FF1209FF7B96
:0808CA00FF7A0879DD0208FE47
:03000B00020A13D3
:030A1300B2A73255
:10080000758902758AEC758CECD28CD2A9D2AF12A4
:1008100008557FC87E001209437BFF7A0879E012F1
:1008200008FE7FF47E011209431209EF7D01E4FF07
:100830001209637BFF7A0879EF1208FEE4FDFF12CC
:100840000963E4FF1209218F0C12089A7FF47E01DC
:0508500012094380E7DE
:03000000020A07EA
:0C0A0700787FE4F6D8FD75810C02080031
:10099F00BB010689828A83E0225002E722BBFE0256
:0909AF00E32289828A83E4932289
:00000001FF
