:03000000020026D5
:10000B0002015B5389F0438901758CFC758A677516
:05001B00A882D28C2236
:100023000201C0787FE4F6D8FD75811702006D02E6
:1000330000B2E493A3F8E493A34003F68001F2082B
:10004300DFF48029E493A3F85407240CC8C333C412
:10005300540F4420C8834004F456800146F6DFE47D
:10006300800B0102040810204080900196E47E0179
:100073009360BCA3FF543F30E509541FFEE493A3F0
:1000830060010ECF54C025E060A840B8E493A3FA02
:10009300E493A3F8E493A3C8C582C8CAC583CAF08E
:1000A300A3C8C582C8CAC583CADFE9DEE780BE121A
:1000B300000E1201B1E4F590E51560FCE51512019F
:1000C3003501030100E30A00E70B00EB0C00EF0D21
:1000D30000F30E00F70F00FB1000FF1100000106F4
:1000E300B290801FB291801BB2928017B29380139B
:1000F300B294800FB295800BB2968007B2978003BB
:10010300E4F590E4F51580B0BB010689828A83E0AB
:10011300225002E722BBFE02E32289828A83E49310
:1001230022EB9FF5F0EA9E42F0E99D42F0E89C4500
:10013300F022D083D082F8E4937012740193700D8F
:10014300A3A393F8740193F5828883E473740293F1
:100153006860EFA3A3A380DFC0E0C0D075D000C068
:1001630004C005C006C007AF0FAE0EAD0DAC0CEF5B
:100173002401F50FE43EF50EE43DF50DE43CF50CEA
:10018300758CFC758A66D007D006D005D004D0D014
:10019300D0E032040C00000000011500021600003C
:1001A300010B00010800020900000110000075891D
:1001B30020759850758DFD75A890D28E22309805C4
:0601C300859915C2983277
:00000001FF
