:1001A6000A11C0F9A4B0999282F880900408000060
:1001B6000000010C00010D00011000010F00010EEE
:0101C6000038
:0B020B00D288D28AD2A8D2AAD2AF2299
:1001C8005389F0438901758CFC758A18D2A9D2AF7E
:0301D800D28C22A4
:1001070075F00A84741125F0F8E6F5A07F057E00E6
:040117007D007C00EB
:08011B008F1E8E1D8D1C8C1B34
:10012300AF0BAE0AAD09AC088F228E218D208C1F38
:10013300C3E50B9522FFE50A9521FEE5099520FD10
:10014300E508951FFCAB1EAA1DA91CA81BC3120121
:09015300ED7003D38001C350D705
:01015C002280
:10015D00D295E50E120107C295D294E50E75F00AFF
:10016D0084241112010FC294D293E50F120107C21C
:10017D0093D292E50F75F00A84241112010FC292E9
:10018D00D291E510120107C291D290E51075F00AD7
:09019D0084241112010FC290220A
:1001DB001201C812020BE4F590F5A0F50D12015DAA
:0201EB0080FB97
:03000300020006F2
:04000600630DFF3255
:030013000201FEE9
:0D01FE00750C00750E00750F0075100032B5
:03000B000200A24E
:1000A200C0E0C0D075D000C004C005C006C007AF14
:1000B2000BAE0AAD09AC08EF2401F50BE43EF50ADC
:1000C200E43DF509E43CF508E50D6026050CE50C78
:1000D200D39409401D750C00050EE50ED3946340C0
:1000E20011750E00050FE50FD3943B4005750F0007
:1000F2000510758CFC758A18D007D006D005D0047F
:05010200D0D0D0E03276
:03000000020016E5
:0C001600787FE4F6D8FD75812202005DC1
:1001ED00EB9FF5F0EA9E42F0E99D42F0E89C45F068
:0101FD0022DF
:100022000201DBE493A3F8E493A34003F68001F218
:1000320008DFF48029E493A3F85407240CC8C333DF
:10004200C4540F4420C8834004F456800146F6DFAE
:10005200E4800B01020408102040809001A6E47E97
:10006200019360BCA3FF543F30E509541FFEE493A3
:10007200A360010ECF54C025E060A840B8E493A36A
:10008200FAE493A3F8E493A3C8C582C8CAC583CA95
:10009200F0A3C8C582C8CAC583CADFE9DEE780BE4D
:0101C7000037
:00000001FF
