:100000000202568F993099FDC2992202055B5F204A
:100010000A0D0052696E670052494E47004154482C
:100020000D0A00020618BB010689828A83E022506D
:1000300002E722BBFE02E32289828A83E49322EB59
:100040009FF5F0EA9E42F0E99D42F0E89C45F022DF
:10005000E3F5F009E208B5F06D606B80F3E3F5F0CD
:1000600009E608B5F060605E80F387F009E608B540
:10007000F054605280F487F009E208B5F048604619
:1000800080F488828C8387F009E0A3B5F03860366D
:1000900080F488828C8387F009E493A3B5F027600D
:1000A0002580F388828C83E3F5F009E0A3B5F01690
:1000B000601480F388828C83E3F5F009E493A3B5A0
:1000C000F004600280F202017B808580E7808E80F0
:1000D000D2803C8015806C807E809B80B5808B8038
:1000E000A1804F8070803A02018789828A83ECFA6E
:1000F000E493F5F0A3C8C582C8CCC583CCE493A330
:10010000C8C582C8CCC583CCB5F070606E80E1896B
:10011000828A83E493F5F0A3E208B5F05E605C8028
:10012000F289828A83E0F5F0A3E608B5F04D604BD2
:1001300080F389828A83E0F5F0A3E208B5F03C60A1
:100140003A80F389828A83E493F5F0A3E608B5F058
:100150002A602880F2805389828A83ECFAE493F53E
:10016000F0A3C8C582C8CCC583CCE0A3C8C582C8EB
:10017000CCC583CCB5F004600280E27FFFB5F0020D
:100180000F2240027F012289828A83ECFAE0F5F097
:10019000A3C8C582C8CCC583CCE0A3C8C582C8CCDF
:1001A000C583CCB5F0D560D380E389828A83ECFA2D
:1001B000E0F5F0A3C8C582C8CCC583CCE493A3C83E
:1001C000C582C8CCC583CCB5F0B160AF80E288F001
:1001D000ED2402B4040050A3F582EB2402B4040021
:1001E000509923234582239000C973EF4E6012EF8C
:1001F00060010EEDBB010B89828A83F0A3DFFCDE78
:10020000FA2289F05007F709DFFCA9F022BBFEFCB7
:10021000F309DFFCA9F022BB010689828A83F02260
:100220005002F722BBFE01F322BB010CE58229F547
:1002300082E5833AF583E0225006E92582F8E6223A
:10024000BBFE06E92582F8E222E58229F582E583F4
:100250003AF583E49322787FE4F6D8FD75815A025B
:10026000029D020490E493A3F8E493A34003F68074
:1002700001F208DFF48029E493A3F85407240CC8A2
:10028000C333C4540F4420C8834004F4568001464D
:10029000F6DFE4800B01020408102040809004D6B1
:1002A000E47E019360BCA3FF543F30E509541FFE78
:1002B000E493A360010ECF54C025E060A840B8E4E9
:1002C00093A3FAE493A3F8E493A3C8C582C8CAC56C
:1002D00083CAF0A3C8C582C8CAC583CADFE9DEE7FE
:1002E00080BE8B448A458946E94A4B70098557444C
:1002F000855845855946E546454545447002802C5C
:1003000085474D85484E85494FAB44AA45A94612BD
:1003100003D2EF2546F546EE3545F545AB44FAA93F
:1003200046120026700AF557F558F559FBFAF922DE
:1003300085474D85484E85494FAB44AA45A946128D
:1003400004338B578A588959EA494B600EE41202EC
:1003500017042559F559E43558F558AB44AA45A971
:1003600046228B3D8A3E893F8D4075410075420093
:100370007543007547FF75480075490E8048E54391
:1003800045424541604BA843AC42AD417BFF7A00FA
:1003900079131201CEEF6012A843AC42AD417BFF4E
:1003A0007A0079181201CEEF700D7BFF7A00791D6B
:1003B0001205E16380FF227547FF75480075490EFD
:1003C0007B007A0079001202E28B418A42894380E5
:1003D000AD228B4A8A4B894CE4F550F551E4FEFF7F
:1003E000AB4DAA4EA94F8F828E83120229FD601356
:1003F000AB4AAA4BA94C1200266D60070FBF000143
:100400000E80DDAB4DAA4EA94F8F828E831202293A
:100410007002801A0551E55170020550AB4A054C37
:10042000E54C7002054BF9AA4B12002670AFAE5096
:10043000AF51228B4A8A4B894C854D50854E518550
:100440004F52AB50AA51A952120026FF6019AB4A75
:10045000AA4BA94C1200266F600D74012552F5526B
:10046000E43551F55180DBAB50AA51A95212002658
:100470006007AB4AAA4BA94C22AB4A054CE54CAAF3
:100480004B7002054B14F912002670ADFBFAF922ED
:10049000E4F580F59075A0FF1206061205F4E4F568
:1004A00008FE7F32FDFB7A00790A1201EBE4F509C0
:1004B0007F987E3AFDFC12051B7BFF7A0579CE12F0
:1004C00005E1E50970F3F509E50960FCAF091205DE
:1004D00096E4F50980F2015A00045300000000017F
:1004E000090020320A0000000000000000000000A7
:1004F00000000000000000000000000000000000FC
:1005000000000000000000000000000000000000EB
:1005100000000000000000010800008F3F8E3E8DAB
:100520003D8C3CAF56AE55AD54AC538F438E428D8F
:10053000418C40C3E5569543FFE5559542FEE55491
:100540009541FDE5539540FCAB3FAA3EA93DA83C33
:10055000C312003FC37001D350D922C0E0C0D07590
:10056000D000C004C005C006C007AF56AE55AD549C
:10057000AC53EF2401F556E43EF555E43DF554E463
:100580003CF553758CFC758A66D007D006D005D033
:1005900004D0D0D0E0328F3CE4FFE53C640D60062F
:1005A000E53C640A701E7B007A00790AAD081203EC
:1005B00062E4F508FE7F32FDFB7A00790A1201EB56
:1005C0007F018009740A2508F8A63C0508224154D9
:1005D000442B38343938323633343631333B0D0A14
:1005E00000120026FF600C120003740129F9E43A9E
:1005F000FA80EE225389F0438901758CFC758A6775
:1006000043A882D28C2253890F4389207598507554
:100610008DFD43A890D28E22309805859909C29805
:0106200032A7
:00000001FF
