:1003F7000A1AC0F9A4B0999282F88090040E0000FE
:100407000000042400000000042800000000040885
:1004170000000000041300000000010C00010D00A3
:0C0427000112000118000119000117006B
:0B04C300D288D28AD2A8D2AAD2AF22DF
:10048C005389F0438901758CFC758A18D2A9D2AFB7
:03049C00D28C22DD
:10049F0053890F438910758DFC758B18D2ABD2AF72
:0304AF00D28E22C8
:1003580075F00A84741A25F0F8E6F5A07F057E008A
:040368007D007C0098
:08036C008F2F8E2E8D2D8C2C9D
:10037400AF11AE10AD0FAC0E8F338E328D318C3089
:10038400C3E5119533FFE5109532FEE50F9531FD78
:10039400E50E9530FCAB2FAA2EA92DA82CC3120470
:0903A400B27003D38001C350D7ED
:0103AD00222D
:1003AE00D295E517120358C295D294E51775F00A47
:1003BE0084241A120360C294D293E519120358C210
:1003CE0093D292E51975F00A84241A120360C29230
:1003DE00D291E518120358C291D290E51875F00A21
:0903EE0084241A120360C290225B
:10001E00E4F519F51875171E12048C12049F1204BC
:10002E00C3F580F5A0C2B7F5122097417F0A1203DF
:10003E0066209739AF27AE26AD25AC24EF2401F507
:10004E0027E43EF526E43DF525E43CF524E47F0364
:10005E00FEFDFCAB27AA26A925A824D31204B24084
:10006E0009E4F527F526F525F5243097FDE47F0301
:10007E00FEFDFCAB27AA26A925A824C31204B27044
:10008E000F751202D282C281C280F5A0C2B7803B28
:10009E00E47F02FEFDFCAB27AA26A925A824C312E5
:1000AE0004B2700B751201C282D281C280801CE430
:1000BE007F01FEFDFCAB27AA26A925A824C31204A6
:1000CE00B27008F512C282C281D280E512600302BC
:1000DE000183D2802096447F0AFEFDFC12036C2021
:1000EE009639AF2BAE2AAD29AC28EF2401F52BE4BF
:1000FE003EF52AE43DF529E43CF528E47F02FEFDB9
:10010E00FCAB2BAA2AA929A828D31204B24009E4D1
:10011E00F52BF52AF529F5283096FDE47F02FEFD34
:10012E00FCAB2BAA2AA929A828C31204B2700B75FE
:10013E000C03D285C284C283803BE47F01FEFDFCAA
:10014E00AB2BAA2AA929A828C31204B2700B750CCE
:10015E0002C285D284C283801CE4FFFEFDFCAB2B61
:10016E00AA2AA929A828C31204B27009750C01C2C3
:0B017E0085C284D2831203AE0200375A
:0300030002046F85
:10046F00C0E0E5127014E50D7009750D01D287C259
:0D047F00868007750D00C287D286D0E0325E
:0300130002023CAA
:10023C00C0E0C0D0E51260030202C7E50D701DE5F9
:10024C000CB4030405188010E50CB40204051980E5
:10025C0007E50CB401020517B280805DE50CB40310
:10026C0014E5187005751817804DE518D3940040E7
:10027C004615188042E50CB4021DE519700E75196F
:10028C003BE518D39400402F1518802BE519D39417
:10029C0000402415198020E50CB4011BE517700EE5
:1002AC0075173BE519D39400400D15198009E51716
:1002BC00D3940040021517B280B280D0D0D0E03277
:03000B00020434B8
:10043400C0E0C0D075D000C004C005C006C007AF7E
:1004440011AE10AD0FAC0EEF2401F511E43EF51022
:10045400E43DF50FE43CF50E758CFC758A18D00765
:0B046400D006D005D004D0D0D0E0328C
:03001B0002018956
:10018900C0E0C0F0C083C082C0D075D000C000C03C
:1001990001C002C003C004C005C006C007E512645F
:1001A90001706FAF16AE15AD14AC13EF2401F5163F
:1001B900E43EF515E43DF514E43CF513E47FE77EF0
:1001C90003FDFCAB16AA15A914A813D31204B24057
:1001D90041751600751500751400751300E5177043
:1001E90028E5197016E5187004D2B78025E518D3EB
:1001F9009400401E75193B15188017E519D3940012
:10020900401075173B15198009E517D39400400272
:100219001517758DFC758B18D007D006D005D0043D
:10022900D003D002D001D000D0D0D082D083D0F07A
:03023900D0E032E0
:030000000202CC2D
:0C02CC00787FE4F6D8FD7581330203133F
:1004B200EB9FF5F0EA9E42F0E99D42F0E89C45F0A0
:0104C2002217
:1002D80002001EE493A3F8E493A34003F68001F21E
:1002E80008DFF48029E493A3F85407240CC8C33327
:1002F800C4540F4420C8834004F456800146F6DFF6
:10030800E4800B01020408102040809003F7E47E8B
:10031800019360BCA3FF543F30E509541FFEE493EA
:10032800A360010ECF54C025E060A840B8E493A3B1
:10033800FAE493A3F8E493A3C8C582C8CAC583CADC
:10034800F0A3C8C582C8CAC583CADFE9DEE780BE94
:0104330000C8
:00000001FF
