:03001C00010800D8
:1000FD0053890F438920759850758DFD43A890D273
:02010D008E2240
:08010F008F993099FDC299227D
:1000EA00120003FF600C12010F740129F9E43AFAB5
:0300FA0080EE2273
:08011700E4F5B01200FD80FECA
:030023000200B226
:1000B200C0E0C0D075D000C007309825859908C22D
:1000C20098E50864316005E508B40104D2B7800CF4
:1000D200E50864306004E5087002C2B7AF08120197
:0800E2000FD007D0D0D0E032AE
:03000000020026D5
:0C002600787FE4F6D8FD75810802006DBB
:10000300BB010689828A83E0225002E722BBFE02FB
:09001300E32289828A83E493222E
:10003200020117E493A3F8E493A34003F68001F2CC
:1000420008DFF48029E493A3F85407240CC8C333CF
:10005200C4540F4420C8834004F456800146F6DF9E
:10006200E4800B010204081020408090001CE47E12
:10007200019360BCA3FF543F30E509541FFEE49393
:10008200A360010ECF54C025E060A840B8E493A35A
:10009200FAE493A3F8E493A3C8C582C8CAC583CA85
:1000A200F0A3C8C582C8CAC583CADFE9DEE780BE3D
:01001F0000E0
:00000001FF
